{
  "contractName": "Ex3",
  "abi": [
    {
      "inputs": [],
      "stateMutability": "nonpayable",
      "type": "constructor"
    },
    {
      "inputs": [],
      "name": "message",
      "outputs": [
        {
          "internalType": "string",
          "name": "",
          "type": "string"
        }
      ],
      "stateMutability": "view",
      "type": "function"
    },
    {
      "inputs": [
        {
          "internalType": "string",
          "name": "_message",
          "type": "string"
        }
      ],
      "name": "setMessage",
      "outputs": [],
      "stateMutability": "nonpayable",
      "type": "function"
    },
    {
      "inputs": [],
      "name": "getMessage",
      "outputs": [
        {
          "internalType": "string",
          "name": "",
          "type": "string"
        }
      ],
      "stateMutability": "view",
      "type": "function"
    },
    {
      "inputs": [
        {
          "internalType": "string",
          "name": "a",
          "type": "string"
        },
        {
          "internalType": "string",
          "name": "b",
          "type": "string"
        }
      ],
      "name": "concatener",
      "outputs": [
        {
          "internalType": "string",
          "name": "",
          "type": "string"
        }
      ],
      "stateMutability": "pure",
      "type": "function"
    },
    {
      "inputs": [
        {
          "internalType": "string",
          "name": "newMessage",
          "type": "string"
        }
      ],
      "name": "concatenerAvec",
      "outputs": [
        {
          "internalType": "string",
          "name": "",
          "type": "string"
        }
      ],
      "stateMutability": "view",
      "type": "function"
    },
    {
      "inputs": [],
      "name": "longueur",
      "outputs": [
        {
          "internalType": "uint256",
          "name": "",
          "type": "uint256"
        }
      ],
      "stateMutability": "view",
      "type": "function"
    },
    {
      "inputs": [
        {
          "internalType": "string",
          "name": "a",
          "type": "string"
        },
        {
          "internalType": "string",
          "name": "b",
          "type": "string"
        }
      ],
      "name": "comparer",
      "outputs": [
        {
          "internalType": "bool",
          "name": "",
          "type": "bool"
        }
      ],
      "stateMutability": "pure",
      "type": "function"
    }
  ],
  "bytecode": "0x608060405234801562000010575f80fd5b506040518060400160405280601481526020017f57656c636f6d6520746f20536f6c6964697479210000000000000000000000008152505f9081620000569190620002c1565b50620003a5565b5f81519050919050565b7f4e487b71000000000000000000000000000000000000000000000000000000005f52604160045260245ffd5b7f4e487b71000000000000000000000000000000000000000000000000000000005f52602260045260245ffd5b5f6002820490506001821680620000d957607f821691505b602082108103620000ef57620000ee62000094565b5b50919050565b5f819050815f5260205f209050919050565b5f6020601f8301049050919050565b5f82821b905092915050565b5f60088302620001537fffffffffffffffffffffffffffffffffffffffffffffffffffffffffffffffff8262000116565b6200015f868362000116565b95508019841693508086168417925050509392505050565b5f819050919050565b5f819050919050565b5f620001a9620001a36200019d8462000177565b62000180565b62000177565b9050919050565b5f819050919050565b620001c48362000189565b620001dc620001d382620001b0565b84845462000122565b825550505050565b5f90565b620001f2620001e4565b620001ff818484620001b9565b505050565b5b8181101562000226576200021a5f82620001e8565b60018101905062000205565b5050565b601f82111562000275576200023f81620000f5565b6200024a8462000107565b810160208510156200025a578190505b62000272620002698562000107565b83018262000204565b50505b505050565b5f82821c905092915050565b5f620002975f19846008026200027a565b1980831691505092915050565b5f620002b1838362000286565b9150826002028217905092915050565b620002cc826200005d565b67ffffffffffffffff811115620002e857620002e762000067565b5b620002f48254620000c1565b620003018282856200022a565b5f60209050601f83116001811462000337575f841562000322578287015190505b6200032e8582620002a4565b8655506200039d565b601f1984166200034786620000f5565b5f5b82811015620003705784890151825560018201915060208501945060208101905062000349565b868310156200039057848901516200038c601f89168262000286565b8355505b6001600288020188555050505b505050505050565b610a9180620003b35f395ff3fe608060405234801561000f575f80fd5b506004361061007b575f3560e01c80639103ca33116100595780639103ca33146100fb578063a9305d851461012b578063ce6d41de14610149578063e21f37ce146101675761007b565b806317646f891461007f578063368b8772146100af578063413d4384146100cb575b5f80fd5b610099600480360381019061009491906104c1565b610185565b6040516100a69190610551565b60405180910390f35b6100c960048036038101906100c4919061056a565b6101dd565b005b6100e560048036038101906100e0919061056a565b6101ef565b6040516100f2919061062b565b60405180910390f35b610115600480360381019061011091906104c1565b61021a565b604051610122919061062b565b60405180910390f35b610133610246565b6040516101409190610663565b60405180910390f35b61015161025a565b60405161015e919061062b565b60405180910390f35b61016f6102e9565b60405161017c919061062b565b60405180910390f35b5f8160405160200161019791906106b6565b60405160208183030381529060405280519060200120836040516020016101be91906106b6565b6040516020818303038152906040528051906020012014905092915050565b805f90816101eb91906108c6565b5050565b60605f82604051602001610204929190610a15565b6040516020818303038152906040529050919050565b6060828260405160200161022f929190610a38565b604051602081830303815290604052905092915050565b5f808054610253906106f9565b9050905090565b60605f8054610268906106f9565b80601f0160208091040260200160405190810160405280929190818152602001828054610294906106f9565b80156102df5780601f106102b6576101008083540402835291602001916102df565b820191905f5260205f20905b8154815290600101906020018083116102c257829003601f168201915b5050505050905090565b5f80546102f5906106f9565b80601f0160208091040260200160405190810160405280929190818152602001828054610321906106f9565b801561036c5780601f106103435761010080835404028352916020019161036c565b820191905f5260205f20905b81548152906001019060200180831161034f57829003601f168201915b505050505081565b5f604051905090565b5f80fd5b5f80fd5b5f80fd5b5f80fd5b5f601f19601f8301169050919050565b7f4e487b71000000000000000000000000000000000000000000000000000000005f52604160045260245ffd5b6103d38261038d565b810181811067ffffffffffffffff821117156103f2576103f161039d565b5b80604052505050565b5f610404610374565b905061041082826103ca565b919050565b5f67ffffffffffffffff82111561042f5761042e61039d565b5b6104388261038d565b9050602081019050919050565b828183375f83830152505050565b5f61046561046084610415565b6103fb565b90508281526020810184848401111561048157610480610389565b5b61048c848285610445565b509392505050565b5f82601f8301126104a8576104a7610385565b5b81356104b8848260208601610453565b91505092915050565b5f80604083850312156104d7576104d661037d565b5b5f83013567ffffffffffffffff8111156104f4576104f3610381565b5b61050085828601610494565b925050602083013567ffffffffffffffff81111561052157610520610381565b5b61052d85828601610494565b9150509250929050565b5f8115159050919050565b61054b81610537565b82525050565b5f6020820190506105645f830184610542565b92915050565b5f6020828403121561057f5761057e61037d565b5b5f82013567ffffffffffffffff81111561059c5761059b610381565b5b6105a884828501610494565b91505092915050565b5f81519050919050565b5f82825260208201905092915050565b5f5b838110156105e85780820151818401526020810190506105cd565b5f8484015250505050565b5f6105fd826105b1565b61060781856105bb565b93506106178185602086016105cb565b6106208161038d565b840191505092915050565b5f6020820190508181035f83015261064381846105f3565b905092915050565b5f819050919050565b61065d8161064b565b82525050565b5f6020820190506106765f830184610654565b92915050565b5f81905092915050565b5f610690826105b1565b61069a818561067c565b93506106aa8185602086016105cb565b80840191505092915050565b5f6106c18284610686565b915081905092915050565b7f4e487b71000000000000000000000000000000000000000000000000000000005f52602260045260245ffd5b5f600282049050600182168061071057607f821691505b602082108103610723576107226106cc565b5b50919050565b5f819050815f5260205f209050919050565b5f6020601f8301049050919050565b5f82821b905092915050565b5f600883026107857fffffffffffffffffffffffffffffffffffffffffffffffffffffffffffffffff8261074a565b61078f868361074a565b95508019841693508086168417925050509392505050565b5f819050919050565b5f6107ca6107c56107c08461064b565b6107a7565b61064b565b9050919050565b5f819050919050565b6107e3836107b0565b6107f76107ef826107d1565b848454610756565b825550505050565b5f90565b61080b6107ff565b6108168184846107da565b505050565b5b818110156108395761082e5f82610803565b60018101905061081c565b5050565b601f82111561087e5761084f81610729565b6108588461073b565b81016020851015610867578190505b61087b6108738561073b565b83018261081b565b50505b505050565b5f82821c905092915050565b5f61089e5f1984600802610883565b1980831691505092915050565b5f6108b6838361088f565b9150826002028217905092915050565b6108cf826105b1565b67ffffffffffffffff8111156108e8576108e761039d565b5b6108f282546106f9565b6108fd82828561083d565b5f60209050601f83116001811461092e575f841561091c578287015190505b61092685826108ab565b86555061098d565b601f19841661093c86610729565b5f5b828110156109635784890151825560018201915060208501945060208101905061093e565b86831015610980578489015161097c601f89168261088f565b8355505b6001600288020188555050505b505050505050565b5f81546109a1816106f9565b6109ab818661067c565b9450600182165f81146109c557600181146109da57610a0c565b60ff1983168652811515820286019350610a0c565b6109e385610729565b5f5b83811015610a04578154818901526001820191506020810190506109e5565b838801955050505b50505092915050565b5f610a208285610995565b9150610a2c8284610686565b91508190509392505050565b5f610a438285610686565b9150610a4f8284610686565b9150819050939250505056fea26469706673582212209a4d60460945210bec90bda243d645fa676827540637734e42f7ca62de8bc22c64736f6c63430008150033",
  "immutableReferences": {},
  "source": "pragma solidity >=0.4.22 <0.9.0;\r\n\r\ncontract Ex3 {\r\n    string public message;\r\n\r\n    constructor() public {\r\n        message = \"Welcome to Solidity!\";  // Default message\r\n    }\r\n\r\n    function setMessage(string memory _message) public {\r\n        message = _message;\r\n    }\r\n\r\n    function getMessage() public view returns (string memory) {\r\n        return message;\r\n    }\r\n\r\n    function concatener(string memory a, string memory b) public pure returns (string memory) {\r\n        return string(abi.encodePacked(a, b));\r\n    }\r\n\r\n    function concatenerAvec(string memory newMessage) public view returns (string memory) {\r\n        return string(abi.encodePacked(message, newMessage));\r\n    }\r\n\r\n    function longueur() public view returns (uint) {\r\n        return bytes(message).length;\r\n    }\r\n\r\n    function comparer(string memory a, string memory b) public pure returns (bool) {\r\n        return (keccak256(abi.encodePacked(a)) == keccak256(abi.encodePacked(b)));\r\n    }\r\n}\r\n",
  "sourcePath": "X:\\School\\Crypto Project\\client\\contracts\\Ex3.sol",
  "compiler": {
    "name": "solc",
    "version": "0.8.21+commit.d9974bed.Emscripten.clang"
  },
  "schemaVersion": "3.4.16",
  "updatedAt": "2025-05-16T20:32:21.438Z",
  "devdoc": {
    "kind": "dev",
    "methods": {},
    "version": 1
  },
  "userdoc": {
    "kind": "user",
    "methods": {},
    "version": 1
  }
}