{
  "contractName": "Ex4",
  "abi": [
    {
      "inputs": [
        {
          "internalType": "int256",
          "name": "number",
          "type": "int256"
        }
      ],
      "name": "estPositif",
      "outputs": [
        {
          "internalType": "bool",
          "name": "",
          "type": "bool"
        }
      ],
      "stateMutability": "pure",
      "type": "function"
    }
  ],
  "bytecode": "0x608060405234801561000f575f80fd5b5061011c8061001d5f395ff3fe6080604052348015600e575f80fd5b50600436106026575f3560e01c8063fa046abd14602a575b5f80fd5b60406004803603810190603c91906091565b6054565b604051604b919060cf565b60405180910390f35b5f8082139050919050565b5f80fd5b5f819050919050565b6073816063565b8114607c575f80fd5b50565b5f81359050608b81606c565b92915050565b5f6020828403121560a35760a2605f565b5b5f60ae84828501607f565b91505092915050565b5f8115159050919050565b60c98160b7565b82525050565b5f60208201905060e05f83018460c2565b9291505056fea26469706673582212201d7c19677bfe7bdb11b1af5d3aa74a3361687e8bec3d52b7d7ff561671236bed64736f6c63430008150033",
  "immutableReferences": {},
  "source": "pragma solidity >=0.4.22 <0.9.0;\r\n\r\ncontract Ex4 {\r\n    function estPositif(int256 number) public pure returns (bool) {\r\n        return number > 0;\r\n    }\r\n}\r\n",
  "sourcePath": "X:\\School\\Crypto Project\\client\\contracts\\Ex4.sol",
  "compiler": {
    "name": "solc",
    "version": "0.8.21+commit.d9974bed.Emscripten.clang"
  },
  "schemaVersion": "3.4.16",
  "updatedAt": "2025-05-16T20:32:21.443Z",
  "devdoc": {
    "kind": "dev",
    "methods": {},
    "version": 1
  },
  "userdoc": {
    "kind": "user",
    "methods": {},
    "version": 1
  }
}