{
  "contractName": "Ex5",
  "abi": [
    {
      "inputs": [
        {
          "internalType": "uint256",
          "name": "number",
          "type": "uint256"
        }
      ],
      "name": "estPair",
      "outputs": [
        {
          "internalType": "bool",
          "name": "",
          "type": "bool"
        }
      ],
      "stateMutability": "pure",
      "type": "function"
    }
  ],
  "bytecode": "0x608060405234801561000f575f80fd5b5061019c8061001d5f395ff3fe608060405234801561000f575f80fd5b5060043610610029575f3560e01c80631cee907f1461002d575b5f80fd5b610047600480360381019061004291906100ab565b61005d565b60405161005491906100f0565b60405180910390f35b5f8060028361006c9190610136565b149050919050565b5f80fd5b5f819050919050565b61008a81610078565b8114610094575f80fd5b50565b5f813590506100a581610081565b92915050565b5f602082840312156100c0576100bf610074565b5b5f6100cd84828501610097565b91505092915050565b5f8115159050919050565b6100ea816100d6565b82525050565b5f6020820190506101035f8301846100e1565b92915050565b7f4e487b71000000000000000000000000000000000000000000000000000000005f52601260045260245ffd5b5f61014082610078565b915061014b83610078565b92508261015b5761015a610109565b5b82820690509291505056fea26469706673582212206cbdcc554c084b0732a3ddf1985755ce630f49f614d15073abe39537717de87164736f6c63430008150033",
  "immutableReferences": {},
  "source": "pragma solidity >=0.4.22 <0.9.0;\r\n\r\ncontract Ex5 {\r\n    function estPair(uint256 number) public pure returns (bool) {\r\n        return number % 2 == 0;\r\n    }\r\n}\r\n",
  "sourcePath": "X:\\School\\Crypto Project\\client\\contracts\\Ex5.sol",
  "compiler": {
    "name": "solc",
    "version": "0.8.21+commit.d9974bed.Emscripten.clang"
  },
  "schemaVersion": "3.4.16",
  "updatedAt": "2025-05-16T20:32:21.445Z",
  "devdoc": {
    "kind": "dev",
    "methods": {},
    "version": 1
  },
  "userdoc": {
    "kind": "user",
    "methods": {},
    "version": 1
  }
}