{
  "contractName": "Ex8",
  "abi": [
    {
      "inputs": [
        {
          "internalType": "address",
          "name": "_recipient",
          "type": "address"
        }
      ],
      "stateMutability": "nonpayable",
      "type": "constructor"
    },
    {
      "inputs": [],
      "name": "recipient",
      "outputs": [
        {
          "internalType": "address",
          "name": "",
          "type": "address"
        }
      ],
      "stateMutability": "view",
      "type": "function"
    },
    {
      "stateMutability": "payable",
      "type": "receive"
    },
    {
      "inputs": [],
      "name": "withdraw",
      "outputs": [],
      "stateMutability": "nonpayable",
      "type": "function"
    }
  ],
  "bytecode": "0x608060405234801561000f575f80fd5b5060405161046e38038061046e833981810160405281019061003191906100d4565b805f806101000a81548173ffffffffffffffffffffffffffffffffffffffff021916908373ffffffffffffffffffffffffffffffffffffffff160217905550506100ff565b5f80fd5b5f73ffffffffffffffffffffffffffffffffffffffff82169050919050565b5f6100a38261007a565b9050919050565b6100b381610099565b81146100bd575f80fd5b50565b5f815190506100ce816100aa565b92915050565b5f602082840312156100e9576100e8610076565b5b5f6100f6848285016100c0565b91505092915050565b6103628061010c5f395ff3fe60806040526004361061002c575f3560e01c80633ccfd60b1461007957806366d003ac1461008f57610075565b36610075575f3411610073576040517f08c379a000000000000000000000000000000000000000000000000000000000815260040161006a90610228565b60405180910390fd5b005b5f80fd5b348015610084575f80fd5b5061008d6100b9565b005b34801561009a575f80fd5b506100a36101ab565b6040516100b09190610285565b60405180910390f35b5f8054906101000a900473ffffffffffffffffffffffffffffffffffffffff1673ffffffffffffffffffffffffffffffffffffffff163373ffffffffffffffffffffffffffffffffffffffff1614610146576040517f08c379a000000000000000000000000000000000000000000000000000000000815260040161013d9061030e565b60405180910390fd5b5f8054906101000a900473ffffffffffffffffffffffffffffffffffffffff1673ffffffffffffffffffffffffffffffffffffffff166108fc4790811502906040515f60405180830381858888f193505050501580156101a8573d5f803e3d5ffd5b50565b5f8054906101000a900473ffffffffffffffffffffffffffffffffffffffff1681565b5f82825260208201905092915050565b7f5061796d656e74206d7573742062652067726561746572207468616e203000005f82015250565b5f610212601e836101ce565b915061021d826101de565b602082019050919050565b5f6020820190508181035f83015261023f81610206565b9050919050565b5f73ffffffffffffffffffffffffffffffffffffffff82169050919050565b5f61026f82610246565b9050919050565b61027f81610265565b82525050565b5f6020820190506102985f830184610276565b92915050565b7f4f6e6c792074686520726563697069656e742063616e207769746864726177205f8201527f7468652066756e64730000000000000000000000000000000000000000000000602082015250565b5f6102f86029836101ce565b91506103038261029e565b604082019050919050565b5f6020820190508181035f830152610325816102ec565b905091905056fea264697066735822122045fd80cda31ffc7719e913ad6874eb6c4b52581d9dff934e19bb38ff7172265964736f6c63430008150033",
  "immutableReferences": {},
  "source": "pragma solidity >=0.4.22 <0.9.0;\r\n\r\ncontract Ex8 {\r\n    address public recipient;\r\n\r\n    constructor(address _recipient) {\r\n        recipient = _recipient;\r\n    }\r\n\r\n    receive() external payable {\r\n        require(msg.value > 0, \"Payment must be greater than 0\");\r\n    }\r\n\r\n    function withdraw() public {\r\n        require(msg.sender == recipient, \"Only the recipient can withdraw the funds\");\r\n        payable(recipient).transfer(address(this).balance);\r\n    }\r\n}\r\n",
  "sourcePath": "X:\\School\\Crypto Project\\client\\contracts\\Ex8.sol",
  "compiler": {
    "name": "solc",
    "version": "0.8.21+commit.d9974bed.Emscripten.clang"
  },
  "schemaVersion": "3.4.16",
  "updatedAt": "2025-05-16T20:32:21.453Z",
  "devdoc": {
    "kind": "dev",
    "methods": {},
    "version": 1
  },
  "userdoc": {
    "kind": "user",
    "methods": {},
    "version": 1
  }
}